{
  "_format": "hh-sol-artifact-1",
  "contractName": "ArkhamToken",
  "sourceName": "contracts/OurToken.sol",
  "abi": [
    {
      "inputs": [
        {
          "internalType": "uint256",
          "name": "cap",
          "type": "uint256"
        },
        {
          "internalType": "uint256",
          "name": "reward",
          "type": "uint256"
        }
      ],
      "stateMutability": "nonpayable",
      "type": "constructor"
    },
    {
      "inputs": [
        {
          "internalType": "uint256",
          "name": "increasedSupply",
          "type": "uint256"
        },
        {
          "internalType": "uint256",
          "name": "cap",
          "type": "uint256"
        }
      ],
      "name": "ERC20ExceededCap",
      "type": "error"
    },
    {
      "inputs": [
        {
          "internalType": "address",
          "name": "spender",
          "type": "address"
        },
        {
          "internalType": "uint256",
          "name": "allowance",
          "type": "uint256"
        },
        {
          "internalType": "uint256",
          "name": "needed",
          "type": "uint256"
        }
      ],
      "name": "ERC20InsufficientAllowance",
      "type": "error"
    },
    {
      "inputs": [
        {
          "internalType": "address",
          "name": "sender",
          "type": "address"
        },
        {
          "internalType": "uint256",
          "name": "balance",
          "type": "uint256"
        },
        {
          "internalType": "uint256",
          "name": "needed",
          "type": "uint256"
        }
      ],
      "name": "ERC20InsufficientBalance",
      "type": "error"
    },
    {
      "inputs": [
        {
          "internalType": "address",
          "name": "approver",
          "type": "address"
        }
      ],
      "name": "ERC20InvalidApprover",
      "type": "error"
    },
    {
      "inputs": [
        {
          "internalType": "uint256",
          "name": "cap",
          "type": "uint256"
        }
      ],
      "name": "ERC20InvalidCap",
      "type": "error"
    },
    {
      "inputs": [
        {
          "internalType": "address",
          "name": "receiver",
          "type": "address"
        }
      ],
      "name": "ERC20InvalidReceiver",
      "type": "error"
    },
    {
      "inputs": [
        {
          "internalType": "address",
          "name": "sender",
          "type": "address"
        }
      ],
      "name": "ERC20InvalidSender",
      "type": "error"
    },
    {
      "inputs": [
        {
          "internalType": "address",
          "name": "spender",
          "type": "address"
        }
      ],
      "name": "ERC20InvalidSpender",
      "type": "error"
    },
    {
      "anonymous": false,
      "inputs": [
        {
          "indexed": true,
          "internalType": "address",
          "name": "owner",
          "type": "address"
        },
        {
          "indexed": true,
          "internalType": "address",
          "name": "spender",
          "type": "address"
        },
        {
          "indexed": false,
          "internalType": "uint256",
          "name": "value",
          "type": "uint256"
        }
      ],
      "name": "Approval",
      "type": "event"
    },
    {
      "anonymous": false,
      "inputs": [
        {
          "indexed": true,
          "internalType": "address",
          "name": "from",
          "type": "address"
        },
        {
          "indexed": true,
          "internalType": "address",
          "name": "to",
          "type": "address"
        },
        {
          "indexed": false,
          "internalType": "uint256",
          "name": "value",
          "type": "uint256"
        }
      ],
      "name": "Transfer",
      "type": "event"
    },
    {
      "inputs": [
        {
          "internalType": "address",
          "name": "owner",
          "type": "address"
        },
        {
          "internalType": "address",
          "name": "spender",
          "type": "address"
        }
      ],
      "name": "allowance",
      "outputs": [
        {
          "internalType": "uint256",
          "name": "",
          "type": "uint256"
        }
      ],
      "stateMutability": "view",
      "type": "function"
    },
    {
      "inputs": [
        {
          "internalType": "address",
          "name": "spender",
          "type": "address"
        },
        {
          "internalType": "uint256",
          "name": "value",
          "type": "uint256"
        }
      ],
      "name": "approve",
      "outputs": [
        {
          "internalType": "bool",
          "name": "",
          "type": "bool"
        }
      ],
      "stateMutability": "nonpayable",
      "type": "function"
    },
    {
      "inputs": [
        {
          "internalType": "address",
          "name": "account",
          "type": "address"
        }
      ],
      "name": "balanceOf",
      "outputs": [
        {
          "internalType": "uint256",
          "name": "",
          "type": "uint256"
        }
      ],
      "stateMutability": "view",
      "type": "function"
    },
    {
      "inputs": [],
      "name": "blockReward",
      "outputs": [
        {
          "internalType": "uint256",
          "name": "",
          "type": "uint256"
        }
      ],
      "stateMutability": "view",
      "type": "function"
    },
    {
      "inputs": [
        {
          "internalType": "uint256",
          "name": "value",
          "type": "uint256"
        }
      ],
      "name": "burn",
      "outputs": [],
      "stateMutability": "nonpayable",
      "type": "function"
    },
    {
      "inputs": [
        {
          "internalType": "address",
          "name": "account",
          "type": "address"
        },
        {
          "internalType": "uint256",
          "name": "value",
          "type": "uint256"
        }
      ],
      "name": "burnFrom",
      "outputs": [],
      "stateMutability": "nonpayable",
      "type": "function"
    },
    {
      "inputs": [],
      "name": "cap",
      "outputs": [
        {
          "internalType": "uint256",
          "name": "",
          "type": "uint256"
        }
      ],
      "stateMutability": "view",
      "type": "function"
    },
    {
      "inputs": [],
      "name": "decimals",
      "outputs": [
        {
          "internalType": "uint8",
          "name": "",
          "type": "uint8"
        }
      ],
      "stateMutability": "view",
      "type": "function"
    },
    {
      "inputs": [],
      "name": "i_owner",
      "outputs": [
        {
          "internalType": "address payable",
          "name": "",
          "type": "address"
        }
      ],
      "stateMutability": "view",
      "type": "function"
    },
    {
      "inputs": [],
      "name": "name",
      "outputs": [
        {
          "internalType": "string",
          "name": "",
          "type": "string"
        }
      ],
      "stateMutability": "view",
      "type": "function"
    },
    {
      "inputs": [
        {
          "internalType": "uint256",
          "name": "reward",
          "type": "uint256"
        }
      ],
      "name": "setBlockReward",
      "outputs": [],
      "stateMutability": "nonpayable",
      "type": "function"
    },
    {
      "inputs": [],
      "name": "symbol",
      "outputs": [
        {
          "internalType": "string",
          "name": "",
          "type": "string"
        }
      ],
      "stateMutability": "view",
      "type": "function"
    },
    {
      "inputs": [],
      "name": "totalSupply",
      "outputs": [
        {
          "internalType": "uint256",
          "name": "",
          "type": "uint256"
        }
      ],
      "stateMutability": "view",
      "type": "function"
    },
    {
      "inputs": [
        {
          "internalType": "address",
          "name": "to",
          "type": "address"
        },
        {
          "internalType": "uint256",
          "name": "value",
          "type": "uint256"
        }
      ],
      "name": "transfer",
      "outputs": [
        {
          "internalType": "bool",
          "name": "",
          "type": "bool"
        }
      ],
      "stateMutability": "nonpayable",
      "type": "function"
    },
    {
      "inputs": [
        {
          "internalType": "address",
          "name": "from",
          "type": "address"
        },
        {
          "internalType": "address",
          "name": "to",
          "type": "address"
        },
        {
          "internalType": "uint256",
          "name": "value",
          "type": "uint256"
        }
      ],
      "name": "transferFrom",
      "outputs": [
        {
          "internalType": "bool",
          "name": "",
          "type": "bool"
        }
      ],
      "stateMutability": "nonpayable",
      "type": "function"
    }
  ],
  "bytecode": "0x60a06040523480156200001157600080fd5b506040516200268f3803806200268f83398181016040528101906200003791906200076e565b620000476200022260201b60201c565b600a62000055919062000945565b8262000062919062000996565b6040518060400160405280600b81526020017f41726b68616d546f6b656e0000000000000000000000000000000000000000008152506040518060400160405280600381526020017f41524b00000000000000000000000000000000000000000000000000000000008152508160039081620000df919062000c51565b508060049081620000f1919062000c51565b505050600081036200013d5760006040517f392e1e2700000000000000000000000000000000000000000000000000000000815260040162000134919062000d7b565b60405180910390fd5b80608081815250505033600560006101000a81548173ffffffffffffffffffffffffffffffffffffffff021916908373ffffffffffffffffffffffffffffffffffffffff160217905550620001e9600560009054906101000a900473ffffffffffffffffffffffffffffffffffffffff16620001be6200022260201b60201c565b600a620001cc919062000945565b63042c1d80620001dd919062000996565b6200022b60201b60201c565b620001f96200022260201b60201c565b600a62000207919062000945565b8162000214919062000996565b600681905550505062000f76565b60006012905090565b6200023b620002b260201b60201c565b816200024c620002bc60201b60201c565b62000258919062000d98565b11156200029c576040517f08c379a0000000000000000000000000000000000000000000000000000000008152600401620002939062000e5a565b60405180910390fd5b620002ae8282620002c660201b60201c565b5050565b6000608051905090565b6000600254905090565b600073ffffffffffffffffffffffffffffffffffffffff168273ffffffffffffffffffffffffffffffffffffffff16036200033b5760006040517fec442f0500000000000000000000000000000000000000000000000000000000815260040162000332919062000ec1565b60405180910390fd5b6200034f600083836200035360201b60201c565b5050565b600073ffffffffffffffffffffffffffffffffffffffff168373ffffffffffffffffffffffffffffffffffffffff1614158015620003bd57504173ffffffffffffffffffffffffffffffffffffffff168273ffffffffffffffffffffffffffffffffffffffff1614155b8015620003f75750600073ffffffffffffffffffffffffffffffffffffffff164173ffffffffffffffffffffffffffffffffffffffff1614155b156200040e576200040d6200042660201b60201c565b5b620004218383836200043c60201b60201c565b505050565b6200043a416006546200022b60201b60201c565b565b6200044f838383620004fe60201b60201c565b600073ffffffffffffffffffffffffffffffffffffffff168373ffffffffffffffffffffffffffffffffffffffff1603620004f957600062000496620002b260201b60201c565b90506000620004aa620002bc60201b60201c565b905081811115620004f65780826040517f9e79f854000000000000000000000000000000000000000000000000000000008152600401620004ed92919062000eef565b60405180910390fd5b50505b505050565b600073ffffffffffffffffffffffffffffffffffffffff168373ffffffffffffffffffffffffffffffffffffffff16036200055457806002600082825462000547919062000d98565b925050819055506200062a565b60008060008573ffffffffffffffffffffffffffffffffffffffff1673ffffffffffffffffffffffffffffffffffffffff16815260200190815260200160002054905081811015620005e3578381836040517fe450d38c000000000000000000000000000000000000000000000000000000008152600401620005da9392919062000f1c565b60405180910390fd5b8181036000808673ffffffffffffffffffffffffffffffffffffffff1673ffffffffffffffffffffffffffffffffffffffff16815260200190815260200160002081905550505b600073ffffffffffffffffffffffffffffffffffffffff168273ffffffffffffffffffffffffffffffffffffffff1603620006755780600260008282540392505081905550620006c2565b806000808473ffffffffffffffffffffffffffffffffffffffff1673ffffffffffffffffffffffffffffffffffffffff168152602001908152602001600020600082825401925050819055505b8173ffffffffffffffffffffffffffffffffffffffff168373ffffffffffffffffffffffffffffffffffffffff167fddf252ad1be2c89b69c2b068fc378daa952ba7f163c4a11628f55a4df523b3ef8360405162000721919062000f59565b60405180910390a3505050565b600080fd5b6000819050919050565b620007488162000733565b81146200075457600080fd5b50565b60008151905062000768816200073d565b92915050565b600080604083850312156200078857620007876200072e565b5b6000620007988582860162000757565b9250506020620007ab8582860162000757565b9150509250929050565b7f4e487b7100000000000000000000000000000000000000000000000000000000600052601160045260246000fd5b60008160011c9050919050565b6000808291508390505b600185111562000843578086048111156200081b576200081a620007b5565b5b60018516156200082b5780820291505b80810290506200083b85620007e4565b9450620007fb565b94509492505050565b6000826200085e576001905062000931565b816200086e576000905062000931565b81600181146200088757600281146200089257620008c8565b600191505062000931565b60ff841115620008a757620008a6620007b5565b5b8360020a915084821115620008c157620008c0620007b5565b5b5062000931565b5060208310610133831016604e8410600b8410161715620009025782820a905083811115620008fc57620008fb620007b5565b5b62000931565b620009118484846001620007f1565b925090508184048111156200092b576200092a620007b5565b5b81810290505b9392505050565b600060ff82169050919050565b6000620009528262000733565b91506200095f8362000938565b92506200098e7fffffffffffffffffffffffffffffffffffffffffffffffffffffffffffffffff84846200084c565b905092915050565b6000620009a38262000733565b9150620009b08362000733565b9250828202620009c08162000733565b91508282048414831517620009da57620009d9620007b5565b5b5092915050565b600081519050919050565b7f4e487b7100000000000000000000000000000000000000000000000000000000600052604160045260246000fd5b7f4e487b7100000000000000000000000000000000000000000000000000000000600052602260045260246000fd5b6000600282049050600182168062000a6357607f821691505b60208210810362000a795762000a7862000a1b565b5b50919050565b60008190508160005260206000209050919050565b60006020601f8301049050919050565b600082821b905092915050565b60006008830262000ae37fffffffffffffffffffffffffffffffffffffffffffffffffffffffffffffffff8262000aa4565b62000aef868362000aa4565b95508019841693508086168417925050509392505050565b6000819050919050565b600062000b3262000b2c62000b268462000733565b62000b07565b62000733565b9050919050565b6000819050919050565b62000b4e8362000b11565b62000b6662000b5d8262000b39565b84845462000ab1565b825550505050565b600090565b62000b7d62000b6e565b62000b8a81848462000b43565b505050565b5b8181101562000bb25762000ba660008262000b73565b60018101905062000b90565b5050565b601f82111562000c015762000bcb8162000a7f565b62000bd68462000a94565b8101602085101562000be6578190505b62000bfe62000bf58562000a94565b83018262000b8f565b50505b505050565b600082821c905092915050565b600062000c266000198460080262000c06565b1980831691505092915050565b600062000c41838362000c13565b9150826002028217905092915050565b62000c5c82620009e1565b67ffffffffffffffff81111562000c785762000c77620009ec565b5b62000c84825462000a4a565b62000c9182828562000bb6565b600060209050601f83116001811462000cc9576000841562000cb4578287015190505b62000cc0858262000c33565b86555062000d30565b601f19841662000cd98662000a7f565b60005b8281101562000d035784890151825560018201915060208501945060208101905062000cdc565b8683101562000d23578489015162000d1f601f89168262000c13565b8355505b6001600288020188555050505b505050505050565b6000819050919050565b600062000d6362000d5d62000d578462000d38565b62000b07565b62000733565b9050919050565b62000d758162000d42565b82525050565b600060208201905062000d92600083018462000d6a565b92915050565b600062000da58262000733565b915062000db28362000733565b925082820190508082111562000dcd5762000dcc620007b5565b5b92915050565b600082825260208201905092915050565b7f45524332303a207472616e7366657220616d6f756e742065786365656473206260008201527f616c616e63650000000000000000000000000000000000000000000000000000602082015250565b600062000e4260268362000dd3565b915062000e4f8262000de4565b604082019050919050565b6000602082019050818103600083015262000e758162000e33565b9050919050565b600073ffffffffffffffffffffffffffffffffffffffff82169050919050565b600062000ea98262000e7c565b9050919050565b62000ebb8162000e9c565b82525050565b600060208201905062000ed8600083018462000eb0565b92915050565b62000ee98162000733565b82525050565b600060408201905062000f06600083018562000ede565b62000f15602083018462000ede565b9392505050565b600060608201905062000f33600083018662000eb0565b62000f42602083018562000ede565b62000f51604083018462000ede565b949350505050565b600060208201905062000f70600083018462000ede565b92915050565b6080516116fd62000f9260003960006104c901526116fd6000f3fe608060405234801561001057600080fd5b50600436106100f55760003560e01c8063355274ea1161009757806395d89b411161006657806395d89b4114610274578063a9059cbb14610292578063dba6335f146102c2578063dd62ed3e146102e0576100f5565b8063355274ea146101ee57806342966c681461020c57806370a082311461022857806379cc679014610258576100f5565b806318160ddd116100d357806318160ddd146101665780631a18e7071461018457806323b872dd146101a0578063313ce567146101d0576100f5565b806306fdde03146100fa578063095ea7b3146101185780630ac168a114610148575b600080fd5b610102610310565b60405161010f9190610fdb565b60405180910390f35b610132600480360381019061012d9190611096565b6103a2565b60405161013f91906110f1565b60405180910390f35b6101506103c5565b60405161015d919061111b565b60405180910390f35b61016e6103cb565b60405161017b919061111b565b60405180910390f35b61019e60048036038101906101999190611136565b6103d5565b005b6101ba60048036038101906101b59190611163565b61048d565b6040516101c791906110f1565b60405180910390f35b6101d86104bc565b6040516101e591906111d2565b60405180910390f35b6101f66104c5565b604051610203919061111b565b60405180910390f35b61022660048036038101906102219190611136565b6104ed565b005b610242600480360381019061023d91906111ed565b610501565b60405161024f919061111b565b60405180910390f35b610272600480360381019061026d9190611096565b610549565b005b61027c610569565b6040516102899190610fdb565b60405180910390f35b6102ac60048036038101906102a79190611096565b6105fb565b6040516102b991906110f1565b60405180910390f35b6102ca61061e565b6040516102d7919061123b565b60405180910390f35b6102fa60048036038101906102f59190611256565b610644565b604051610307919061111b565b60405180910390f35b60606003805461031f906112c5565b80601f016020809104026020016040519081016040528092919081815260200182805461034b906112c5565b80156103985780601f1061036d57610100808354040283529160200191610398565b820191906000526020600020905b81548152906001019060200180831161037b57829003601f168201915b5050505050905090565b6000806103ad6106cb565b90506103ba8185856106d3565b600191505092915050565b60065481565b6000600254905090565b600560009054906101000a900473ffffffffffffffffffffffffffffffffffffffff1673ffffffffffffffffffffffffffffffffffffffff163373ffffffffffffffffffffffffffffffffffffffff1614610465576040517f08c379a000000000000000000000000000000000000000000000000000000000815260040161045c90611368565b60405180910390fd5b61046d6104bc565b600a61047991906114ea565b816104849190611535565b60068190555050565b6000806104986106cb565b90506104a58582856106e5565b6104b0858585610779565b60019150509392505050565b60006012905090565b60007f0000000000000000000000000000000000000000000000000000000000000000905090565b6104fe6104f86106cb565b8261086d565b50565b60008060008373ffffffffffffffffffffffffffffffffffffffff1673ffffffffffffffffffffffffffffffffffffffff168152602001908152602001600020549050919050565b61055b826105556106cb565b836106e5565b610565828261086d565b5050565b606060048054610578906112c5565b80601f01602080910402602001604051908101604052809291908181526020018280546105a4906112c5565b80156105f15780601f106105c6576101008083540402835291602001916105f1565b820191906000526020600020905b8154815290600101906020018083116105d457829003601f168201915b5050505050905090565b6000806106066106cb565b9050610613818585610779565b600191505092915050565b600560009054906101000a900473ffffffffffffffffffffffffffffffffffffffff1681565b6000600160008473ffffffffffffffffffffffffffffffffffffffff1673ffffffffffffffffffffffffffffffffffffffff16815260200190815260200160002060008373ffffffffffffffffffffffffffffffffffffffff1673ffffffffffffffffffffffffffffffffffffffff16815260200190815260200160002054905092915050565b600033905090565b6106e083838360016108ef565b505050565b60006106f18484610644565b90507fffffffffffffffffffffffffffffffffffffffffffffffffffffffffffffffff81146107735781811015610763578281836040517ffb8f41b200000000000000000000000000000000000000000000000000000000815260040161075a93929190611586565b60405180910390fd5b610772848484840360006108ef565b5b50505050565b600073ffffffffffffffffffffffffffffffffffffffff168373ffffffffffffffffffffffffffffffffffffffff16036107eb5760006040517f96c6fd1e0000000000000000000000000000000000000000000000000000000081526004016107e291906115bd565b60405180910390fd5b600073ffffffffffffffffffffffffffffffffffffffff168273ffffffffffffffffffffffffffffffffffffffff160361085d5760006040517fec442f0500000000000000000000000000000000000000000000000000000000815260040161085491906115bd565b60405180910390fd5b610868838383610ac6565b505050565b600073ffffffffffffffffffffffffffffffffffffffff168273ffffffffffffffffffffffffffffffffffffffff16036108df5760006040517f96c6fd1e0000000000000000000000000000000000000000000000000000000081526004016108d691906115bd565b60405180910390fd5b6108eb82600083610ac6565b5050565b600073ffffffffffffffffffffffffffffffffffffffff168473ffffffffffffffffffffffffffffffffffffffff16036109615760006040517fe602df0500000000000000000000000000000000000000000000000000000000815260040161095891906115bd565b60405180910390fd5b600073ffffffffffffffffffffffffffffffffffffffff168373ffffffffffffffffffffffffffffffffffffffff16036109d35760006040517f94280d620000000000000000000000000000000000000000000000000000000081526004016109ca91906115bd565b60405180910390fd5b81600160008673ffffffffffffffffffffffffffffffffffffffff1673ffffffffffffffffffffffffffffffffffffffff16815260200190815260200160002060008573ffffffffffffffffffffffffffffffffffffffff1673ffffffffffffffffffffffffffffffffffffffff168152602001908152602001600020819055508015610ac0578273ffffffffffffffffffffffffffffffffffffffff168473ffffffffffffffffffffffffffffffffffffffff167f8c5be1e5ebec7d5bd14f71427d1e84f3dd0314c0f7b2291e5b200ac8c7c3b92584604051610ab7919061111b565b60405180910390a35b50505050565b600073ffffffffffffffffffffffffffffffffffffffff168373ffffffffffffffffffffffffffffffffffffffff1614158015610b2f57504173ffffffffffffffffffffffffffffffffffffffff168273ffffffffffffffffffffffffffffffffffffffff1614155b8015610b685750600073ffffffffffffffffffffffffffffffffffffffff164173ffffffffffffffffffffffffffffffffffffffff1614155b15610b7657610b75610b86565b5b610b81838383610b94565b505050565b610b9241600654610c3a565b565b610b9f838383610ca4565b600073ffffffffffffffffffffffffffffffffffffffff168373ffffffffffffffffffffffffffffffffffffffff1603610c35576000610bdd6104c5565b90506000610be96103cb565b905081811115610c325780826040517f9e79f854000000000000000000000000000000000000000000000000000000008152600401610c299291906115d8565b60405180910390fd5b50505b505050565b610c426104c5565b81610c4b6103cb565b610c559190611601565b1115610c96576040517f08c379a0000000000000000000000000000000000000000000000000000000008152600401610c8d906116a7565b60405180910390fd5b610ca08282610ec9565b5050565b600073ffffffffffffffffffffffffffffffffffffffff168373ffffffffffffffffffffffffffffffffffffffff1603610cf6578060026000828254610cea9190611601565b92505081905550610dc9565b60008060008573ffffffffffffffffffffffffffffffffffffffff1673ffffffffffffffffffffffffffffffffffffffff16815260200190815260200160002054905081811015610d82578381836040517fe450d38c000000000000000000000000000000000000000000000000000000008152600401610d7993929190611586565b60405180910390fd5b8181036000808673ffffffffffffffffffffffffffffffffffffffff1673ffffffffffffffffffffffffffffffffffffffff16815260200190815260200160002081905550505b600073ffffffffffffffffffffffffffffffffffffffff168273ffffffffffffffffffffffffffffffffffffffff1603610e125780600260008282540392505081905550610e5f565b806000808473ffffffffffffffffffffffffffffffffffffffff1673ffffffffffffffffffffffffffffffffffffffff168152602001908152602001600020600082825401925050819055505b8173ffffffffffffffffffffffffffffffffffffffff168373ffffffffffffffffffffffffffffffffffffffff167fddf252ad1be2c89b69c2b068fc378daa952ba7f163c4a11628f55a4df523b3ef83604051610ebc919061111b565b60405180910390a3505050565b600073ffffffffffffffffffffffffffffffffffffffff168273ffffffffffffffffffffffffffffffffffffffff1603610f3b5760006040517fec442f05000000000000000000000000000000000000000000000000000000008152600401610f3291906115bd565b60405180910390fd5b610f4760008383610ac6565b5050565b600081519050919050565b600082825260208201905092915050565b60005b83811015610f85578082015181840152602081019050610f6a565b60008484015250505050565b6000601f19601f8301169050919050565b6000610fad82610f4b565b610fb78185610f56565b9350610fc7818560208601610f67565b610fd081610f91565b840191505092915050565b60006020820190508181036000830152610ff58184610fa2565b905092915050565b600080fd5b600073ffffffffffffffffffffffffffffffffffffffff82169050919050565b600061102d82611002565b9050919050565b61103d81611022565b811461104857600080fd5b50565b60008135905061105a81611034565b92915050565b6000819050919050565b61107381611060565b811461107e57600080fd5b50565b6000813590506110908161106a565b92915050565b600080604083850312156110ad576110ac610ffd565b5b60006110bb8582860161104b565b92505060206110cc85828601611081565b9150509250929050565b60008115159050919050565b6110eb816110d6565b82525050565b600060208201905061110660008301846110e2565b92915050565b61111581611060565b82525050565b6000602082019050611130600083018461110c565b92915050565b60006020828403121561114c5761114b610ffd565b5b600061115a84828501611081565b91505092915050565b60008060006060848603121561117c5761117b610ffd565b5b600061118a8682870161104b565b935050602061119b8682870161104b565b92505060406111ac86828701611081565b9150509250925092565b600060ff82169050919050565b6111cc816111b6565b82525050565b60006020820190506111e760008301846111c3565b92915050565b60006020828403121561120357611202610ffd565b5b60006112118482850161104b565b91505092915050565b600061122582611002565b9050919050565b6112358161121a565b82525050565b6000602082019050611250600083018461122c565b92915050565b6000806040838503121561126d5761126c610ffd565b5b600061127b8582860161104b565b925050602061128c8582860161104b565b9150509250929050565b7f4e487b7100000000000000000000000000000000000000000000000000000000600052602260045260246000fd5b600060028204905060018216806112dd57607f821691505b6020821081036112f0576112ef611296565b5b50919050565b7f4f6e6c7920746865206f776e65722063616e2063616c6c20746869732066756e60008201527f6374696f6e000000000000000000000000000000000000000000000000000000602082015250565b6000611352602583610f56565b915061135d826112f6565b604082019050919050565b6000602082019050818103600083015261138181611345565b9050919050565b7f4e487b7100000000000000000000000000000000000000000000000000000000600052601160045260246000fd5b60008160011c9050919050565b6000808291508390505b600185111561140e578086048111156113ea576113e9611388565b5b60018516156113f95780820291505b8081029050611407856113b7565b94506113ce565b94509492505050565b60008261142757600190506114e3565b8161143557600090506114e3565b816001811461144b576002811461145557611484565b60019150506114e3565b60ff84111561146757611466611388565b5b8360020a91508482111561147e5761147d611388565b5b506114e3565b5060208310610133831016604e8410600b84101617156114b95782820a9050838111156114b4576114b3611388565b5b6114e3565b6114c684848460016113c4565b925090508184048111156114dd576114dc611388565b5b81810290505b9392505050565b60006114f582611060565b9150611500836111b6565b925061152d7fffffffffffffffffffffffffffffffffffffffffffffffffffffffffffffffff8484611417565b905092915050565b600061154082611060565b915061154b83611060565b925082820261155981611060565b915082820484148315176115705761156f611388565b5b5092915050565b61158081611022565b82525050565b600060608201905061159b6000830186611577565b6115a8602083018561110c565b6115b5604083018461110c565b949350505050565b60006020820190506115d26000830184611577565b92915050565b60006040820190506115ed600083018561110c565b6115fa602083018461110c565b9392505050565b600061160c82611060565b915061161783611060565b925082820190508082111561162f5761162e611388565b5b92915050565b7f45524332303a207472616e7366657220616d6f756e742065786365656473206260008201527f616c616e63650000000000000000000000000000000000000000000000000000602082015250565b6000611691602683610f56565b915061169c82611635565b604082019050919050565b600060208201905081810360008301526116c081611684565b905091905056fea26469706673582212204896d3d721a5d13a2b86b358bcad7eb6266061d7e5d3221b073c438c894695cb64736f6c63430008140033",
  "linkReferences": {},
  "deployedLinkReferences": {}
}